{
  "_format": "hh-sol-artifact-1",
  "contractName": "BlockusPremint",
  "sourceName": "contracts/Blockus721Premint.sol",
  "abi": [
    {
      "inputs": [
        {
          "internalType": "string",
          "name": "name_",
          "type": "string"
        },
        {
          "internalType": "string",
          "name": "symbol_",
          "type": "string"
        },
        {
          "internalType": "string",
          "name": "baseURI_",
          "type": "string"
        },
        {
          "internalType": "address",
          "name": "initialOwner",
          "type": "address"
        },
        {
          "internalType": "address",
          "name": "trustedForwarder",
          "type": "address"
        },
        {
          "internalType": "bool",
          "name": "isSoulbound",
          "type": "bool"
        },
        {
          "internalType": "uint256",
          "name": "totalSupply_",
          "type": "uint256"
        }
      ],
      "stateMutability": "nonpayable",
      "type": "constructor"
    },
    {
      "inputs": [],
      "name": "ERC721EnumerableForbiddenBatchMint",
      "type": "error"
    },
    {
      "inputs": [
        {
          "internalType": "address",
          "name": "sender",
          "type": "address"
        },
        {
          "internalType": "uint256",
          "name": "tokenId",
          "type": "uint256"
        },
        {
          "internalType": "address",
          "name": "owner",
          "type": "address"
        }
      ],
      "name": "ERC721IncorrectOwner",
      "type": "error"
    },
    {
      "inputs": [
        {
          "internalType": "address",
          "name": "operator",
          "type": "address"
        },
        {
          "internalType": "uint256",
          "name": "tokenId",
          "type": "uint256"
        }
      ],
      "name": "ERC721InsufficientApproval",
      "type": "error"
    },
    {
      "inputs": [
        {
          "internalType": "address",
          "name": "approver",
          "type": "address"
        }
      ],
      "name": "ERC721InvalidApprover",
      "type": "error"
    },
    {
      "inputs": [
        {
          "internalType": "address",
          "name": "operator",
          "type": "address"
        }
      ],
      "name": "ERC721InvalidOperator",
      "type": "error"
    },
    {
      "inputs": [
        {
          "internalType": "address",
          "name": "owner",
          "type": "address"
        }
      ],
      "name": "ERC721InvalidOwner",
      "type": "error"
    },
    {
      "inputs": [
        {
          "internalType": "address",
          "name": "receiver",
          "type": "address"
        }
      ],
      "name": "ERC721InvalidReceiver",
      "type": "error"
    },
    {
      "inputs": [
        {
          "internalType": "address",
          "name": "sender",
          "type": "address"
        }
      ],
      "name": "ERC721InvalidSender",
      "type": "error"
    },
    {
      "inputs": [
        {
          "internalType": "uint256",
          "name": "tokenId",
          "type": "uint256"
        }
      ],
      "name": "ERC721NonexistentToken",
      "type": "error"
    },
    {
      "inputs": [
        {
          "internalType": "address",
          "name": "owner",
          "type": "address"
        },
        {
          "internalType": "uint256",
          "name": "index",
          "type": "uint256"
        }
      ],
      "name": "ERC721OutOfBoundsIndex",
      "type": "error"
    },
    {
      "inputs": [],
      "name": "EnforcedPause",
      "type": "error"
    },
    {
      "inputs": [],
      "name": "ExpectedPause",
      "type": "error"
    },
    {
      "inputs": [
        {
          "internalType": "address",
          "name": "owner",
          "type": "address"
        }
      ],
      "name": "OwnableInvalidOwner",
      "type": "error"
    },
    {
      "inputs": [
        {
          "internalType": "address",
          "name": "account",
          "type": "address"
        }
      ],
      "name": "OwnableUnauthorizedAccount",
      "type": "error"
    },
    {
      "anonymous": false,
      "inputs": [
        {
          "indexed": true,
          "internalType": "address",
          "name": "owner",
          "type": "address"
        },
        {
          "indexed": true,
          "internalType": "address",
          "name": "approved",
          "type": "address"
        },
        {
          "indexed": true,
          "internalType": "uint256",
          "name": "tokenId",
          "type": "uint256"
        }
      ],
      "name": "Approval",
      "type": "event"
    },
    {
      "anonymous": false,
      "inputs": [
        {
          "indexed": true,
          "internalType": "address",
          "name": "owner",
          "type": "address"
        },
        {
          "indexed": true,
          "internalType": "address",
          "name": "operator",
          "type": "address"
        },
        {
          "indexed": false,
          "internalType": "bool",
          "name": "approved",
          "type": "bool"
        }
      ],
      "name": "ApprovalForAll",
      "type": "event"
    },
    {
      "anonymous": false,
      "inputs": [
        {
          "indexed": false,
          "internalType": "string",
          "name": "newBaseURI",
          "type": "string"
        }
      ],
      "name": "BaseURIUpdated",
      "type": "event"
    },
    {
      "anonymous": false,
      "inputs": [
        {
          "indexed": true,
          "internalType": "address",
          "name": "previousOwner",
          "type": "address"
        },
        {
          "indexed": true,
          "internalType": "address",
          "name": "newOwner",
          "type": "address"
        }
      ],
      "name": "OwnershipTransferred",
      "type": "event"
    },
    {
      "anonymous": false,
      "inputs": [
        {
          "indexed": false,
          "internalType": "address",
          "name": "account",
          "type": "address"
        }
      ],
      "name": "Paused",
      "type": "event"
    },
    {
      "anonymous": false,
      "inputs": [
        {
          "indexed": true,
          "internalType": "address",
          "name": "to",
          "type": "address"
        },
        {
          "indexed": true,
          "internalType": "uint256",
          "name": "tokenId",
          "type": "uint256"
        }
      ],
      "name": "TokenMinted",
      "type": "event"
    },
    {
      "anonymous": false,
      "inputs": [
        {
          "indexed": true,
          "internalType": "address",
          "name": "to",
          "type": "address"
        },
        {
          "indexed": true,
          "internalType": "uint256",
          "name": "tokenId",
          "type": "uint256"
        }
      ],
      "name": "TokenSold",
      "type": "event"
    },
    {
      "anonymous": false,
      "inputs": [
        {
          "indexed": false,
          "internalType": "uint256[]",
          "name": "tokenIds",
          "type": "uint256[]"
        }
      ],
      "name": "TokensMarkedAvailable",
      "type": "event"
    },
    {
      "anonymous": false,
      "inputs": [
        {
          "indexed": true,
          "internalType": "address",
          "name": "from",
          "type": "address"
        },
        {
          "indexed": true,
          "internalType": "address",
          "name": "to",
          "type": "address"
        },
        {
          "indexed": true,
          "internalType": "uint256",
          "name": "tokenId",
          "type": "uint256"
        }
      ],
      "name": "Transfer",
      "type": "event"
    },
    {
      "anonymous": false,
      "inputs": [
        {
          "indexed": false,
          "internalType": "address",
          "name": "account",
          "type": "address"
        }
      ],
      "name": "Unpaused",
      "type": "event"
    },
    {
      "inputs": [],
      "name": "TOTAL_SUPPLY",
      "outputs": [
        {
          "internalType": "uint256",
          "name": "",
          "type": "uint256"
        }
      ],
      "stateMutability": "view",
      "type": "function"
    },
    {
      "inputs": [
        {
          "internalType": "address",
          "name": "to",
          "type": "address"
        },
        {
          "internalType": "uint256",
          "name": "tokenId",
          "type": "uint256"
        }
      ],
      "name": "approve",
      "outputs": [],
      "stateMutability": "nonpayable",
      "type": "function"
    },
    {
      "inputs": [
        {
          "internalType": "uint256",
          "name": "",
          "type": "uint256"
        }
      ],
      "name": "availableTokens",
      "outputs": [
        {
          "internalType": "uint256",
          "name": "",
          "type": "uint256"
        }
      ],
      "stateMutability": "view",
      "type": "function"
    },
    {
      "inputs": [
        {
          "internalType": "address",
          "name": "owner",
          "type": "address"
        }
      ],
      "name": "balanceOf",
      "outputs": [
        {
          "internalType": "uint256",
          "name": "",
          "type": "uint256"
        }
      ],
      "stateMutability": "view",
      "type": "function"
    },
    {
      "inputs": [
        {
          "internalType": "address[]",
          "name": "recipients",
          "type": "address[]"
        },
        {
          "internalType": "uint256[]",
          "name": "tokenIds",
          "type": "uint256[]"
        }
      ],
      "name": "batchTransferToCustomers",
      "outputs": [],
      "stateMutability": "nonpayable",
      "type": "function"
    },
    {
      "inputs": [
        {
          "internalType": "uint256",
          "name": "tokenId",
          "type": "uint256"
        }
      ],
      "name": "getApproved",
      "outputs": [
        {
          "internalType": "address",
          "name": "",
          "type": "address"
        }
      ],
      "stateMutability": "view",
      "type": "function"
    },
    {
      "inputs": [],
      "name": "getAvailableCount",
      "outputs": [
        {
          "internalType": "uint256",
          "name": "",
          "type": "uint256"
        }
      ],
      "stateMutability": "view",
      "type": "function"
    },
    {
      "inputs": [],
      "name": "getAvailableTokens",
      "outputs": [
        {
          "internalType": "uint256[]",
          "name": "",
          "type": "uint256[]"
        }
      ],
      "stateMutability": "view",
      "type": "function"
    },
    {
      "inputs": [
        {
          "internalType": "address",
          "name": "owner",
          "type": "address"
        },
        {
          "internalType": "address",
          "name": "operator",
          "type": "address"
        }
      ],
      "name": "isApprovedForAll",
      "outputs": [
        {
          "internalType": "bool",
          "name": "",
          "type": "bool"
        }
      ],
      "stateMutability": "view",
      "type": "function"
    },
    {
      "inputs": [
        {
          "internalType": "uint256",
          "name": "",
          "type": "uint256"
        }
      ],
      "name": "isAvailable",
      "outputs": [
        {
          "internalType": "bool",
          "name": "",
          "type": "bool"
        }
      ],
      "stateMutability": "view",
      "type": "function"
    },
    {
      "inputs": [
        {
          "internalType": "address",
          "name": "forwarder",
          "type": "address"
        }
      ],
      "name": "isTrustedForwarder",
      "outputs": [
        {
          "internalType": "bool",
          "name": "",
          "type": "bool"
        }
      ],
      "stateMutability": "view",
      "type": "function"
    },
    {
      "inputs": [],
      "name": "markAllOwnedTokensAvailable",
      "outputs": [],
      "stateMutability": "nonpayable",
      "type": "function"
    },
    {
      "inputs": [
        {
          "internalType": "uint256[]",
          "name": "tokenIds",
          "type": "uint256[]"
        }
      ],
      "name": "markTokensAvailable",
      "outputs": [],
      "stateMutability": "nonpayable",
      "type": "function"
    },
    {
      "inputs": [],
      "name": "name",
      "outputs": [
        {
          "internalType": "string",
          "name": "",
          "type": "string"
        }
      ],
      "stateMutability": "view",
      "type": "function"
    },
    {
      "inputs": [],
      "name": "owner",
      "outputs": [
        {
          "internalType": "address",
          "name": "",
          "type": "address"
        }
      ],
      "stateMutability": "view",
      "type": "function"
    },
    {
      "inputs": [
        {
          "internalType": "uint256",
          "name": "tokenId",
          "type": "uint256"
        }
      ],
      "name": "ownerOf",
      "outputs": [
        {
          "internalType": "address",
          "name": "",
          "type": "address"
        }
      ],
      "stateMutability": "view",
      "type": "function"
    },
    {
      "inputs": [],
      "name": "pause",
      "outputs": [],
      "stateMutability": "nonpayable",
      "type": "function"
    },
    {
      "inputs": [],
      "name": "paused",
      "outputs": [
        {
          "internalType": "bool",
          "name": "",
          "type": "bool"
        }
      ],
      "stateMutability": "view",
      "type": "function"
    },
    {
      "inputs": [],
      "name": "renounceOwnership",
      "outputs": [],
      "stateMutability": "nonpayable",
      "type": "function"
    },
    {
      "inputs": [
        {
          "internalType": "address",
          "name": "from",
          "type": "address"
        },
        {
          "internalType": "address",
          "name": "to",
          "type": "address"
        },
        {
          "internalType": "uint256",
          "name": "tokenId",
          "type": "uint256"
        }
      ],
      "name": "safeTransferFrom",
      "outputs": [],
      "stateMutability": "nonpayable",
      "type": "function"
    },
    {
      "inputs": [
        {
          "internalType": "address",
          "name": "from",
          "type": "address"
        },
        {
          "internalType": "address",
          "name": "to",
          "type": "address"
        },
        {
          "internalType": "uint256",
          "name": "tokenId",
          "type": "uint256"
        },
        {
          "internalType": "bytes",
          "name": "data",
          "type": "bytes"
        }
      ],
      "name": "safeTransferFrom",
      "outputs": [],
      "stateMutability": "nonpayable",
      "type": "function"
    },
    {
      "inputs": [
        {
          "internalType": "address",
          "name": "operator",
          "type": "address"
        },
        {
          "internalType": "bool",
          "name": "approved",
          "type": "bool"
        }
      ],
      "name": "setApprovalForAll",
      "outputs": [],
      "stateMutability": "nonpayable",
      "type": "function"
    },
    {
      "inputs": [
        {
          "internalType": "string",
          "name": "newBaseURI",
          "type": "string"
        }
      ],
      "name": "setBaseURI",
      "outputs": [],
      "stateMutability": "nonpayable",
      "type": "function"
    },
    {
      "inputs": [
        {
          "internalType": "bool",
          "name": "isSoulbound",
          "type": "bool"
        }
      ],
      "name": "setSoulbound",
      "outputs": [],
      "stateMutability": "nonpayable",
      "type": "function"
    },
    {
      "inputs": [],
      "name": "soulbound",
      "outputs": [
        {
          "internalType": "bool",
          "name": "",
          "type": "bool"
        }
      ],
      "stateMutability": "view",
      "type": "function"
    },
    {
      "inputs": [
        {
          "internalType": "bytes4",
          "name": "interfaceId",
          "type": "bytes4"
        }
      ],
      "name": "supportsInterface",
      "outputs": [
        {
          "internalType": "bool",
          "name": "",
          "type": "bool"
        }
      ],
      "stateMutability": "view",
      "type": "function"
    },
    {
      "inputs": [],
      "name": "symbol",
      "outputs": [
        {
          "internalType": "string",
          "name": "",
          "type": "string"
        }
      ],
      "stateMutability": "view",
      "type": "function"
    },
    {
      "inputs": [
        {
          "internalType": "uint256",
          "name": "index",
          "type": "uint256"
        }
      ],
      "name": "tokenByIndex",
      "outputs": [
        {
          "internalType": "uint256",
          "name": "",
          "type": "uint256"
        }
      ],
      "stateMutability": "view",
      "type": "function"
    },
    {
      "inputs": [
        {
          "internalType": "address",
          "name": "owner",
          "type": "address"
        },
        {
          "internalType": "uint256",
          "name": "index",
          "type": "uint256"
        }
      ],
      "name": "tokenOfOwnerByIndex",
      "outputs": [
        {
          "internalType": "uint256",
          "name": "",
          "type": "uint256"
        }
      ],
      "stateMutability": "view",
      "type": "function"
    },
    {
      "inputs": [
        {
          "internalType": "uint256",
          "name": "tokenId",
          "type": "uint256"
        }
      ],
      "name": "tokenURI",
      "outputs": [
        {
          "internalType": "string",
          "name": "",
          "type": "string"
        }
      ],
      "stateMutability": "view",
      "type": "function"
    },
    {
      "inputs": [],
      "name": "totalSupply",
      "outputs": [
        {
          "internalType": "uint256",
          "name": "",
          "type": "uint256"
        }
      ],
      "stateMutability": "view",
      "type": "function"
    },
    {
      "inputs": [
        {
          "internalType": "address",
          "name": "from",
          "type": "address"
        },
        {
          "internalType": "address",
          "name": "to",
          "type": "address"
        },
        {
          "internalType": "uint256",
          "name": "tokenId",
          "type": "uint256"
        }
      ],
      "name": "transferFrom",
      "outputs": [],
      "stateMutability": "nonpayable",
      "type": "function"
    },
    {
      "inputs": [
        {
          "internalType": "address",
          "name": "to",
          "type": "address"
        }
      ],
      "name": "transferNextAvailable",
      "outputs": [
        {
          "internalType": "uint256",
          "name": "",
          "type": "uint256"
        }
      ],
      "stateMutability": "nonpayable",
      "type": "function"
    },
    {
      "inputs": [
        {
          "internalType": "address",
          "name": "newOwner",
          "type": "address"
        }
      ],
      "name": "transferOwnership",
      "outputs": [],
      "stateMutability": "nonpayable",
      "type": "function"
    },
    {
      "inputs": [
        {
          "internalType": "address",
          "name": "to",
          "type": "address"
        },
        {
          "internalType": "uint256",
          "name": "tokenId",
          "type": "uint256"
        }
      ],
      "name": "transferToCustomer",
      "outputs": [],
      "stateMutability": "nonpayable",
      "type": "function"
    },
    {
      "inputs": [],
      "name": "trustedForwarder",
      "outputs": [
        {
          "internalType": "address",
          "name": "",
          "type": "address"
        }
      ],
      "stateMutability": "view",
      "type": "function"
    },
    {
      "inputs": [],
      "name": "unpause",
      "outputs": [],
      "stateMutability": "nonpayable",
      "type": "function"
    }
  ],
  "bytecode": "0x60c060405234801561001057600080fd5b5060405161365a38038061365a83398101604081905261002f91610c60565b82848888600061003f8382610dbf565b50600161004c8282610dbf565b5050506001600160a01b038116610082576000604051631e4fbdf760e01b81526004016100799190610e7d565b60405180910390fd5b61008b81610185565b50600a805460ff60a01b191690556001600160a01b0316608052806100fe5760405162461bcd60e51b815260206004820152602360248201527f546f74616c20737570706c79206d75737420626520677265617465722074686160448201526206e20360ec1b6064820152608401610079565b6127108111156101505760405162461bcd60e51b815260206004820152601660248201527f546f74616c20737570706c7920746f6f206c61726765000000000000000000006044820152606401610079565b600b61015c8682610dbf565b50600c805460ff191683151517905560a0819052610179846101d7565b50505050505050610fea565b600a80546001600160a01b038381166001600160a01b0319831681179093556040519116919082907f8be0079c531659141344cd1fd0a4f28419497f9722a3daafe3b4186f6b6457e090600090a35050565b60015b60a051811161024b5761020382826040518060200160405280600081525061025560201b60201c565b60405181906001600160a01b038416907fb9144c96c86541f6fa89c9f2f02495cccf4b08cd6643e26d34ee00aa586558a890600090a38061024381610ea7565b9150506101da565b505060a051600d55565b61025f8383610279565b61027461026a6102dd565b60008585856102ec565b505050565b6001600160a01b0382166102a3576000604051633250574960e11b81526004016100799190610e7d565b60006102b0838383610405565b90506001600160a01b038116156102745760006040516339e3563760e11b81526004016100799190610e7d565b60006102e76104fc565b905090565b6001600160a01b0383163b156103fe57604051630a85bd0160e11b81526001600160a01b0384169063150b7a029061032e908890889087908790600401610ec0565b6020604051808303816000875af1925050508015610369575060408051601f3d908101601f1916820190925261036691810190610f18565b60015b6103c9573d808015610397576040519150601f19603f3d011682016040523d82523d6000602084013e61039c565b606091505b5080516000036103c15783604051633250574960e11b81526004016100799190610e7d565b805181602001fd5b6001600160e01b03198116630a85bd0160e11b146103fc5783604051633250574960e11b81526004016100799190610e7d565b505b5050505050565b600061040f61054e565b6001600160a01b0384161580159061042f57506001600160a01b03821615155b801561043d5750600c5460ff165b156104e95761044a610581565b6001600160a01b0316846001600160a01b03161480610488575061046c610581565b6001600160a01b031661047d6102dd565b6001600160a01b0316145b6104e95760405162461bcd60e51b815260206004820152602c60248201527f546f6b656e20697320736f756c626f756e64202d206f6e6c79206f776e65722060448201526b31b0b7103a3930b739b332b960a11b6064820152608401610079565b6104f4848484610590565b949350505050565b600036601461050a3361065d565b80156105165750808210155b15610546576000366105288385610f49565b610533928290610f5c565b61053c91610f86565b60601c9250505090565b339250505090565b610561600a54600160a01b900460ff1690565b1561057f5760405163d93c066560e01b815260040160405180910390fd5b565b600a546001600160a01b031690565b60008061059e858585610683565b90506001600160a01b0381166105fb576105f684600880546000838152600960205260408120829055600182018355919091527ff3f7a9fe364faab93b216da50a3214154f22a0a2b415b23a84c8169e8b636ee30155565b61061e565b846001600160a01b0316816001600160a01b03161461061e5761061e8185610776565b6001600160a01b03851661063a57610635846107f7565b6104f4565b846001600160a01b0316816001600160a01b0316146104f4576104f485856108a6565b600061066860805190565b6001600160a01b0316826001600160a01b0316149050919050565b60008061068f846108f6565b90506001600160a01b038316156106ab576106ab818486610911565b6001600160a01b038116156106e8576106c76000858180610975565b6001600160a01b038116600090815260036020526040902080546000190190555b6001600160a01b03851615610717576001600160a01b0385166000908152600360205260409020805460010190555b60008481526002602052604080822080546001600160a01b0319166001600160a01b0389811691821790925591518793918516917fddf252ad1be2c89b69c2b068fc378daa952ba7f163c4a11628f55a4df523b3ef91a4949350505050565b600061078183610a72565b6000838152600760209081526040808320546001600160a01b03881684526006909252909120919250908183146107d857600083815260208281526040808320548584528184208190558352600790915290208290555b6000938452600760209081526040808620869055938552525081205550565b60085460009061080990600190610f49565b6000838152600960205260408120546008805493945090928490811061083157610831610fbe565b90600052602060002001549050806008838154811061085257610852610fbe565b600091825260208083209091019290925582815260099091526040808220849055858252812055600880548061088a5761088a610fd4565b6001900381819060005260206000200160009055905550505050565b600060016108b384610a72565b6108bd9190610f49565b6001600160a01b039093166000908152600660209081526040808320868452825280832085905593825260079052919091209190915550565b6000908152600260205260409020546001600160a01b031690565b61091c838383610aba565b610274576001600160a01b03831661094a57604051637e27328960e01b815260048101829052602401610079565b60405163177e802f60e01b81526001600160a01b038316600482015260248101829052604401610079565b808061098957506001600160a01b03821615155b15610a4257600061099984610b1d565b90506001600160a01b038316158015906109c55750826001600160a01b0316816001600160a01b031614155b80156109d857506109d68184610b5b565b155b156109f8578260405163a9fbf51f60e01b81526004016100799190610e7d565b8115610a405783856001600160a01b0316826001600160a01b03167f8c5be1e5ebec7d5bd14f71427d1e84f3dd0314c0f7b2291e5b200ac8c7c3b92560405160405180910390a45b505b5050600090815260046020526040902080546001600160a01b0319166001600160a01b0392909216919091179055565b60006001600160a01b038216610a9e5760006040516322718ad960e21b81526004016100799190610e7d565b506001600160a01b031660009081526003602052604090205490565b60006001600160a01b038316158015906104f45750826001600160a01b0316846001600160a01b03161480610af45750610af48484610b5b565b806104f45750506000908152600460205260409020546001600160a01b03908116911614919050565b600080610b29836108f6565b90506001600160a01b038116610b5557604051637e27328960e01b815260048101849052602401610079565b92915050565b6001600160a01b03918216600090815260056020908152604080832093909416825291909152205460ff1690565b634e487b7160e01b600052604160045260246000fd5b60005b83811015610bba578181015183820152602001610ba2565b50506000910152565b600082601f830112610bd457600080fd5b81516001600160401b03811115610bed57610bed610b89565b604051601f8201601f19908116603f011681016001600160401b0381118282101715610c1b57610c1b610b89565b604052818152838201602001851015610c3357600080fd5b6104f4826020830160208701610b9f565b80516001600160a01b0381168114610c5b57600080fd5b919050565b600080600080600080600060e0888a031215610c7b57600080fd5b87516001600160401b03811115610c9157600080fd5b610c9d8a828b01610bc3565b60208a015190985090506001600160401b03811115610cbb57600080fd5b610cc78a828b01610bc3565b60408a015190975090506001600160401b03811115610ce557600080fd5b610cf18a828b01610bc3565b955050610d0060608901610c44565b9350610d0e60808901610c44565b925060a08801518015158114610d2357600080fd5b60c09890980151969995985093969295919492935090919050565b600181811c90821680610d5257607f821691505b602082108103610d7257634e487b7160e01b600052602260045260246000fd5b50919050565b601f82111561027457806000526020600020601f840160051c81016020851015610d9f5750805b601f840160051c820191505b818110156103fe5760008155600101610dab565b81516001600160401b03811115610dd857610dd8610b89565b610dec81610de68454610d3e565b84610d78565b6020601f821160018114610e205760008315610e085750848201515b600019600385901b1c1916600184901b1784556103fe565b600084815260208120601f198516915b82811015610e505787850151825560209485019460019092019101610e30565b5084821015610e6e5786840151600019600387901b60f8161c191681555b50505050600190811b01905550565b6001600160a01b0391909116815260200190565b634e487b7160e01b600052601160045260246000fd5b600060018201610eb957610eb9610e91565b5060010190565b60018060a01b038516815260018060a01b03841660208201528260408201526080606082015260008251806080840152610f018160a0850160208701610b9f565b601f01601f19169190910160a00195945050505050565b600060208284031215610f2a57600080fd5b81516001600160e01b031981168114610f4257600080fd5b9392505050565b81810381811115610b5557610b55610e91565b60008085851115610f6c57600080fd5b83861115610f7957600080fd5b5050820193919092039150565b80356001600160601b03198116906014841015610fb7576001600160601b0319601485900360031b81901b82161691505b5092915050565b634e487b7160e01b600052603260045260246000fd5b634e487b7160e01b600052603160045260246000fd5b60805160a05161263d61101d600039600081816103630152818161068c0152610aee01526000610a4e015261263d6000f3fe608060405234801561001057600080fd5b50600436106101b75760003560e01c806301ffc9a7146101bc57806306fdde03146101e4578063081812fc146101f9578063095ea7b3146102195780630fad0f511461022e57806318160ddd1461023b57806323b872dd1461024d5780632f745c59146102605780633a178d99146102735780633f4ba83a1461029657806342842e0e1461029e57806348e6f33f146102b15780634f6ccce7146102c457806355f804b3146102d7578063572b6c05146102ea5780635c975abb146102fd5780635d64edc8146103055780636352211e1461031857806370a082311461032b578063715018a61461033e5780637da0a877146103465780638456cb591461034e5780638da5cb5b14610356578063902d55a51461035e578063958d69901461038557806395d89b411461038d578063a22cb46514610395578063ad64d068146103a8578063b88d4fde146103bb578063bb31e77f146103ce578063c87b56dd146103d6578063df30e54b146103e9578063e0281a9c146103fc578063e35568cb1461040f578063e6a4f45914610424578063e985e9c514610437578063f2fde38b1461044a575b600080fd5b6101cf6101ca366004611de8565b61045d565b60405190151581526020015b60405180910390f35b6101ec61046e565b6040516101db9190611e55565b61020c610207366004611e68565b610500565b6040516101db9190611e81565b61022c610227366004611eac565b610515565b005b600c546101cf9060ff1681565b6008545b6040519081526020016101db565b61022c61025b366004611ed6565b61052b565b61023f61026e366004611eac565b6105c6565b6101cf610281366004611e68565b600f6020526000908152604090205460ff1681565b61022c61061d565b61022c6102ac366004611ed6565b61062f565b61022c6102bf366004611f5e565b61064f565b61023f6102d2366004611e68565b610801565b61022c6102e536600461202d565b610855565b6101cf6102f8366004612075565b6108a4565b6101cf6108c9565b61023f610313366004612075565b6108d9565b61020c610326366004611e68565b6109e7565b61023f610339366004612075565b6109f2565b61022c610a3a565b61020c610a4c565b61022c610a70565b61020c610a80565b61023f7f000000000000000000000000000000000000000000000000000000000000000081565b61022c610a8f565b6101ec610c8e565b61022c6103a33660046120a0565b610c9d565b61023f6103b6366004611e68565b610caf565b61022c6103c93660046120d3565b610cd0565b600e5461023f565b6101ec6103e4366004611e68565b610cef565b61022c6103f736600461214e565b610d57565b61022c61040a366004611eac565b610d72565b610417610e33565b6040516101db9190612169565b61022c6104323660046121ac565b610e8a565b6101cf61044536600461221b565b6110bf565b61022c610458366004612075565b6110ed565b60006104688261112b565b92915050565b60606000805461047d90612245565b80601f01602080910402602001604051908101604052809291908181526020018280546104a990612245565b80156104f65780601f106104cb576101008083540402835291602001916104f6565b820191906000526020600020905b8154815290600101906020018083116104d957829003601f168201915b5050505050905090565b600061050b82611150565b5061046882611188565b61052782826105226111a3565b6111b2565b5050565b6001600160a01b03821661055e576000604051633250574960e11b81526004016105559190611e81565b60405180910390fd5b6000610572838361056d6111a3565b6111bf565b9050836001600160a01b0316816001600160a01b0316146105c0576040516364283d7b60e01b81526001600160a01b0380861660048301526024820184905282166044820152606401610555565b50505050565b60006105d1836109f2565b82106105f457828260405163295f44f760e21b815260040161055592919061227f565b506001600160a01b03919091166000908152600660209081526040808320938352929052205490565b6106256112b6565b61062d6112ff565b565b61064a83838360405180602001604052806000815250610cd0565b505050565b6106576112b6565b60005b818110156107d557600083838381811061067657610676612298565b9050602002013590506000811180156106af57507f00000000000000000000000000000000000000000000000000000000000000008111155b6106ee5760405162461bcd60e51b815260206004820152601060248201526f125b9d985b1a59081d1bdad95b88125160821b6044820152606401610555565b6106f6610a80565b6001600160a01b0316610708826109e7565b6001600160a01b03161461072e5760405162461bcd60e51b8152600401610555906122ae565b6000818152600f602052604090205460ff16156107975760405162461bcd60e51b815260206004820152602160248201527f546f6b656e20616c7265616479206d61726b656420617320617661696c61626c6044820152606560f81b6064820152608401610555565b600e805460018181019092556000805160206125a8833981519152018290556000918252600f6020526040909120805460ff1916821790550161065a565b506000805160206125e883398151915282826040516107f59291906122ef565b60405180910390a15050565b600061080c60085490565b82106108305760008260405163295f44f760e21b815260040161055592919061227f565b6008828154811061084357610843612298565b90600052602060002001549050919050565b61085d6112b6565b600b610869828261236f565b507f6741b2fc379fad678116fe3d4d4b9a1a184ab53ba36b86ad0fa66340b1ab41ad816040516108999190611e55565b60405180910390a150565b60006108ae610a4c565b6001600160a01b0316826001600160a01b0316149050919050565b600a54600160a01b900460ff1690565b60006108e36112b6565b6108eb611354565b600e546109395760405162461bcd60e51b815260206004820152601c60248201527b4e6f20746f6b656e7320617661696c61626c6520666f722073616c6560201b6044820152606401610555565b600e80546000919061094d90600190612443565b8154811061095d5761095d612298565b90600052602060002001549050600e80548061097b5761097b612456565b600082815260208082208301600019908101839055909201909255828252600f905260409020805460ff191690556109bb6109b4610a80565b848361062f565b60405181906001600160a01b038516906000805160206125c883398151915290600090a390505b919050565b600061046882611150565b60006001600160a01b038216610a1e5760006040516322718ad960e21b81526004016105559190611e81565b506001600160a01b031660009081526003602052604090205490565b610a426112b6565b61062d600061137a565b7f000000000000000000000000000000000000000000000000000000000000000090565b610a786112b6565b61062d6113cc565b600a546001600160a01b031690565b610a976112b6565b6000610aa4610339610a80565b6001600160401b03811115610abb57610abb611f9f565b604051908082528060200260200182016040528015610ae4578160200160208202803683370190505b509050600060015b7f00000000000000000000000000000000000000000000000000000000000000008111610bd257610b1b610a80565b6001600160a01b0316610b2d826109e7565b6001600160a01b0316148015610b5257506000818152600f602052604090205460ff16155b15610bc05780838381518110610b6a57610b6a612298565b602090810291909101810191909152600e805460018181019092556000805160206125a8833981519152018390556000838152600f9092526040909120805460ff1916909117905581610bbc8161246c565b9250505b80610bca8161246c565b915050610aec565b506000816001600160401b03811115610bed57610bed611f9f565b604051908082528060200260200182016040528015610c16578160200160208202803683370190505b50905060005b82811015610c6357838181518110610c3657610c36612298565b6020026020010151828281518110610c5057610c50612298565b6020908102919091010152600101610c1c565b506000805160206125e883398151915281604051610c819190612169565b60405180910390a1505050565b60606001805461047d90612245565b610527610ca86111a3565b8383611410565b600e8181548110610cbf57600080fd5b600091825260209091200154905081565b610cdb84848461052b565b6105c0610ce66111a3565b858585856114a6565b6060610cfa82611150565b506000610d056115be565b90506000815111610d255760405180602001604052806000815250610d50565b80610d2f846115cd565b604051602001610d40929190612485565b6040516020818303038152906040525b9392505050565b610d5f6112b6565b600c805460ff1916911515919091179055565b610d7a6112b6565b610d82611354565b610d8a610a80565b6001600160a01b0316610d9c826109e7565b6001600160a01b031614610dc25760405162461bcd60e51b8152600401610555906122ae565b6000818152600f602052604090205460ff16610df05760405162461bcd60e51b8152600401610555906124b4565b610df98161165f565b610e0b610e04610a80565b838361062f565b60405181906001600160a01b038416906000805160206125c883398151915290600090a35050565b6060600e8054806020026020016040519081016040528092919081815260200182805480156104f657602002820191906000526020600020905b815481526020019060010190808311610e6d575050505050905090565b610e926112b6565b610e9a611354565b828114610ee25760405162461bcd60e51b8152602060048201526016602482015275082e4e4c2f2e640d8cadccee8d040dad2e6dac2e8c6d60531b6044820152606401610555565b6032831115610f2a5760405162461bcd60e51b815260206004820152601460248201527342617463682073697a6520746f6f206c6172676560601b6044820152606401610555565b60005b838110156110b857610f3d610a80565b6001600160a01b0316610f67848484818110610f5b57610f5b612298565b905060200201356109e7565b6001600160a01b031614610f8d5760405162461bcd60e51b8152600401610555906122ae565b600f6000848484818110610fa357610fa3612298565b602090810292909201358352508101919091526040016000205460ff16610fdc5760405162461bcd60e51b8152600401610555906124b4565b610ffd838383818110610ff157610ff1612298565b9050602002013561165f565b61104d611008610a80565b86868481811061101a5761101a612298565b905060200201602081019061102f9190612075565b85858581811061104157611041612298565b9050602002013561062f565b82828281811061105f5761105f612298565b9050602002013585858381811061107857611078612298565b905060200201602081019061108d9190612075565b6001600160a01b03166000805160206125c883398151915260405160405180910390a3600101610f2d565b5050505050565b6001600160a01b03918216600090815260056020908152604080832093909416825291909152205460ff1690565b6110f56112b6565b6001600160a01b03811661111f576000604051631e4fbdf760e01b81526004016105559190611e81565b6111288161137a565b50565b60006001600160e01b0319821663780e9d6360e01b1480610468575061046882611721565b60008061115c83611771565b90506001600160a01b03811661046857604051637e27328960e01b815260048101849052602401610555565b6000908152600460205260409020546001600160a01b031690565b60006111ad61178c565b905090565b61064a83838360016117de565b60006111c9611354565b6001600160a01b038416158015906111e957506001600160a01b03821615155b80156111f75750600c5460ff165b156112a357611204610a80565b6001600160a01b0316846001600160a01b031614806112425750611226610a80565b6001600160a01b03166112376111a3565b6001600160a01b0316145b6112a35760405162461bcd60e51b815260206004820152602c60248201527f546f6b656e20697320736f756c626f756e64202d206f6e6c79206f776e65722060448201526b31b0b7103a3930b739b332b960a11b6064820152608401610555565b6112ae8484846118db565b949350505050565b6112be6111a3565b6001600160a01b03166112cf610a80565b6001600160a01b03161461062d576112e56111a3565b60405163118cdaa760e01b81526004016105559190611e81565b6113076119a8565b600a805460ff60a01b191690557f5db9ee0a495bf2e6ff9c91a7834c1ba4fdd244a5e8aa4e537bd38aeae4b073aa61133d6111a3565b60405161134a9190611e81565b60405180910390a1565b61135c6108c9565b1561062d5760405163d93c066560e01b815260040160405180910390fd5b600a80546001600160a01b038381166001600160a01b0319831681179093556040519116919082907f8be0079c531659141344cd1fd0a4f28419497f9722a3daafe3b4186f6b6457e090600090a35050565b6113d4611354565b600a805460ff60a01b1916600160a01b1790557f62e78cea01bee320cd4e420270b5ea74000d11b0c9f74754ebdbfc544b05a25861133d6111a3565b6001600160a01b0382166114395781604051630b61174360e31b81526004016105559190611e81565b6001600160a01b03838116600081815260056020908152604080832094871680845294825291829020805460ff191686151590811790915591519182527f17307eab39ab6107e8899845ad3d59bd9653f200f220920489ca2b5937696c31910160405180910390a3505050565b6001600160a01b0383163b156110b857604051630a85bd0160e11b81526001600160a01b0384169063150b7a02906114e89088908890879087906004016124eb565b6020604051808303816000875af1925050508015611523575060408051601f3d908101601f1916820190925261152091810190612528565b60015b611583573d808015611551576040519150601f19603f3d011682016040523d82523d6000602084013e611556565b606091505b50805160000361157b5783604051633250574960e11b81526004016105559190611e81565b805181602001fd5b6001600160e01b03198116630a85bd0160e11b146115b65783604051633250574960e11b81526004016105559190611e81565b505050505050565b6060600b805461047d90612245565b606060006115da836119cd565b60010190506000816001600160401b038111156115f9576115f9611f9f565b6040519080825280601f01601f191660200182016040528015611623576020820181803683370190505b5090508181016020015b600019016f181899199a1a9b1b9c1cb0b131b232b360811b600a86061a8153600a850494508461162d57509392505050565b6000818152600f60205260408120805460ff191690555b600e548110156105275781600e828154811061169457611694612298565b90600052602060002001540361171957600e80546116b490600190612443565b815481106116c4576116c4612298565b9060005260206000200154600e82815481106116e2576116e2612298565b600091825260209091200155600e8054806116ff576116ff612456565b600190038181906000526020600020016000905590555050565b600101611676565b60006001600160e01b031982166380ac58cd60e01b148061175257506001600160e01b03198216635b5e139f60e01b145b8061046857506301ffc9a760e01b6001600160e01b0319831614610468565b6000908152600260205260409020546001600160a01b031690565b600036601461179a336108a4565b80156117a65750808210155b156117d6576000366117b88385612443565b6117c3928290612545565b6117cc9161256f565b60601c9250505090565b339250505090565b80806117f257506001600160a01b03821615155b156118ab57600061180284611150565b90506001600160a01b0383161580159061182e5750826001600160a01b0316816001600160a01b031614155b8015611841575061183f81846110bf565b155b15611861578260405163a9fbf51f60e01b81526004016105559190611e81565b81156118a95783856001600160a01b0316826001600160a01b03167f8c5be1e5ebec7d5bd14f71427d1e84f3dd0314c0f7b2291e5b200ac8c7c3b92560405160405180910390a45b505b5050600090815260046020526040902080546001600160a01b0319166001600160a01b0392909216919091179055565b6000806118e9858585611aa3565b90506001600160a01b0381166119465761194184600880546000838152600960205260408120829055600182018355919091527ff3f7a9fe364faab93b216da50a3214154f22a0a2b415b23a84c8169e8b636ee30155565b611969565b846001600160a01b0316816001600160a01b031614611969576119698185611b97565b6001600160a01b0385166119855761198084611c18565b6112ae565b846001600160a01b0316816001600160a01b0316146112ae576112ae8585611cc7565b6119b06108c9565b61062d57604051638dfc202b60e01b815260040160405180910390fd5b60008072184f03e93ff9f4daa797ed6e38ed64bf6a1f0160401b8310611a0c5772184f03e93ff9f4daa797ed6e38ed64bf6a1f0160401b830492506040015b6904ee2d6d415b85acef8160201b8310611a36576904ee2d6d415b85acef8160201b830492506020015b662386f26fc100008310611a5457662386f26fc10000830492506010015b6305f5e1008310611a6c576305f5e100830492506008015b6127108310611a8057612710830492506004015b60648310611a92576064830492506002015b600a83106104685760010192915050565b600080611aaf84611771565b90506001600160a01b03831615611acb57611acb818486611d17565b6001600160a01b03811615611b0957611ae86000856000806117de565b6001600160a01b038116600090815260036020526040902080546000190190555b6001600160a01b03851615611b38576001600160a01b0385166000908152600360205260409020805460010190555b60008481526002602052604080822080546001600160a01b0319166001600160a01b0389811691821790925591518793918516917fddf252ad1be2c89b69c2b068fc378daa952ba7f163c4a11628f55a4df523b3ef91a4949350505050565b6000611ba2836109f2565b6000838152600760209081526040808320546001600160a01b0388168452600690925290912091925090818314611bf957600083815260208281526040808320548584528184208190558352600790915290208290555b6000938452600760209081526040808620869055938552525081205550565b600854600090611c2a90600190612443565b60008381526009602052604081205460088054939450909284908110611c5257611c52612298565b906000526020600020015490508060088381548110611c7357611c73612298565b6000918252602080832090910192909255828152600990915260408082208490558582528120556008805480611cab57611cab612456565b6001900381819060005260206000200160009055905550505050565b60006001611cd4846109f2565b611cde9190612443565b6001600160a01b039093166000908152600660209081526040808320868452825280832085905593825260079052919091209190915550565b611d22838383611d6d565b61064a576001600160a01b038316611d5057604051637e27328960e01b815260048101829052602401610555565b818160405163177e802f60e01b815260040161055592919061227f565b60006001600160a01b038316158015906112ae5750826001600160a01b0316846001600160a01b03161480611da75750611da784846110bf565b806112ae5750826001600160a01b0316611dc083611188565b6001600160a01b031614949350505050565b6001600160e01b03198116811461112857600080fd5b600060208284031215611dfa57600080fd5b8135610d5081611dd2565b60005b83811015611e20578181015183820152602001611e08565b50506000910152565b60008151808452611e41816020860160208601611e05565b601f01601f19169290920160200192915050565b602081526000610d506020830184611e29565b600060208284031215611e7a57600080fd5b5035919050565b6001600160a01b0391909116815260200190565b80356001600160a01b03811681146109e257600080fd5b60008060408385031215611ebf57600080fd5b611ec883611e95565b946020939093013593505050565b600080600060608486031215611eeb57600080fd5b611ef484611e95565b9250611f0260208501611e95565b929592945050506040919091013590565b60008083601f840112611f2557600080fd5b5081356001600160401b03811115611f3c57600080fd5b6020830191508360208260051b8501011115611f5757600080fd5b9250929050565b60008060208385031215611f7157600080fd5b82356001600160401b03811115611f8757600080fd5b611f9385828601611f13565b90969095509350505050565b634e487b7160e01b600052604160045260246000fd5b6000806001600160401b03841115611fcf57611fcf611f9f565b50604051601f19601f85018116603f011681018181106001600160401b0382111715611ffd57611ffd611f9f565b60405283815290508082840185101561201557600080fd5b83836020830137600060208583010152509392505050565b60006020828403121561203f57600080fd5b81356001600160401b0381111561205557600080fd5b8201601f8101841361206657600080fd5b6112ae84823560208401611fb5565b60006020828403121561208757600080fd5b610d5082611e95565b803580151581146109e257600080fd5b600080604083850312156120b357600080fd5b6120bc83611e95565b91506120ca60208401612090565b90509250929050565b600080600080608085870312156120e957600080fd5b6120f285611e95565b935061210060208601611e95565b92506040850135915060608501356001600160401b0381111561212257600080fd5b8501601f8101871361213357600080fd5b61214287823560208401611fb5565b91505092959194509250565b60006020828403121561216057600080fd5b610d5082612090565b602080825282518282018190526000918401906040840190835b818110156121a1578351835260209384019390920191600101612183565b509095945050505050565b600080600080604085870312156121c257600080fd5b84356001600160401b038111156121d857600080fd5b6121e487828801611f13565b90955093505060208501356001600160401b0381111561220357600080fd5b61220f87828801611f13565b95989497509550505050565b6000806040838503121561222e57600080fd5b61223783611e95565b91506120ca60208401611e95565b600181811c9082168061225957607f821691505b60208210810361227957634e487b7160e01b600052602260045260246000fd5b50919050565b6001600160a01b03929092168252602082015260400190565b634e487b7160e01b600052603260045260246000fd5b60208082526021908201527f546f6b656e206e6f74206f776e656420627920636f6e7472616374206f776e656040820152603960f91b606082015260800190565b6020808252810182905260006001600160fb1b0383111561230f57600080fd5b8260051b80856040850137919091016040019392505050565b601f82111561064a57806000526020600020601f840160051c8101602085101561234f5750805b601f840160051c820191505b818110156110b8576000815560010161235b565b81516001600160401b0381111561238857612388611f9f565b61239c816123968454612245565b84612328565b6020601f8211600181146123d057600083156123b85750848201515b600019600385901b1c1916600184901b1784556110b8565b600084815260208120601f198516915b8281101561240057878501518255602094850194600190920191016123e0565b508482101561241e5786840151600019600387901b60f8161c191681555b50505050600190811b01905550565b634e487b7160e01b600052601160045260246000fd5b818103818111156104685761046861242d565b634e487b7160e01b600052603160045260246000fd5b60006001820161247e5761247e61242d565b5060010190565b60008351612497818460208801611e05565b8351908301906124ab818360208801611e05565b01949350505050565b6020808252601d908201527f546f6b656e206e6f74206d61726b656420617320617661696c61626c65000000604082015260600190565b6001600160a01b038581168252841660208201526040810183905260806060820181905260009061251e90830184611e29565b9695505050505050565b60006020828403121561253a57600080fd5b8151610d5081611dd2565b6000808585111561255557600080fd5b8386111561256257600080fd5b5050820193919092039150565b80356001600160601b031981169060148410156125a0576001600160601b0319601485900360031b81901b82161691505b509291505056febb7b4a454dc3493923482f07822329ed19e8244eff582cc204f8554c3620c3fdfe2ff4cf36ff7d2c2b06eb960897ee0d76d9c3e58da12feb7b93e86b226dd344680b5fc338c4a293aaa8bc144115e82b990e18c57ef3d39fa26617d7060dfa2aa2646970667358221220480fa1a55cdb380b6e3d8f9628daa5724df527f17edac253a6c7ece3435b8a7364736f6c634300081b0033",
  "linkReferences": {},
  "deployedLinkReferences": {}
}